:08000000B6130400000000002B
:04002800EC040000E4
:0400A000D403000085
:100400003220EF00C3202000008041001040BA00DD
:100410000160EF00000006003132000033410000AF
:100420003435000036420000373800003943000000
:100430002A300000234400003220EF0083222000F5
:10044000008041001040BA000160EF00000006008B
:100450000A0D0000486500006C6C00006F2E000063
:100460002E2E00000A0D0000000000003220EF00D8
:1004700023242000008041001040BA000160EF00FA
:1004800000000600506F00007765000072690000F0
:100490006E670000204F00004E0000003220EF0089
:1004A000A3252000008041001040BA000160EF0049
:1004B00000000600536900006E6700006C650000D4
:1004C00020530000616D0000706C0000650A0000A0
:1004D000000000003220EF00632720000080410070
:1004E0001040BA000160EF000000060053770000E2
:1004F00065650000700A0000000000003220EF0077
:10050000A3282000008041001040BA000160EF00E5
:1005100000000600467500006C6C000020530000CF
:1005200077650000657000000A0000003220EF00CF
:10053000232A2000008041001040BA000160EF0033
:1005400000000600436C000065610000720A0000B4
:10055000000000003220EF00632B200000804100EB
:100560001040BA000160EF00000006004672000073
:1005700065710000756500006E630000793A000047
:100580000A0000003220EF00E32C20000080410030
:100590001040BA000160EF000000060031200000AA
:1005A0002D20000032300000306B00002048000099
:1005B0007A0A0000000000003220EF00832E2000A5
:1005C000008041001040BA000160EF00000006000A
:1005D000312000002D2000003130000020480000B4
:1005E0007A0A0000000000003220EF0003302000F3
:1005F000008041001040BA000160EF0000000600DA
:1006000031300000202D000020310000303000008B
:10061000204800007A0A0000000000003220EF00AD
:10062000A3312000008041001040BA000160EF00BB
:100630000000060031300000302000002D200000B6
:10064000316B0000204800007A0A00000000000022
:100650003220EF0043332000008041001040BA00F8
:100660000160EF0000000600316B0000202D00004B
:1006700020310000306B0000204800007A0A0000A2
:10068000000000003220EF00E33420000080410031
:100690001040BA000160EF00000006003130000099
:1006A0006B2000002D20000031300000306B000076
:1006B000204800007A0A0000000000003220EF000D
:1006C000A3362000008041001040BA000160EF0016
:1006D0000000060031300000306B0000202D0000CB
:1006E00020320000303000006B200000487A00000B
:1006F0000A0000003220EF00633820000080410033
:100700001040BA000160EF000000060053790000BD
:1007100073740000656D0000206900007320000004
:100720004275000073790000000000003220EF00E5
:10073000233A2000008041001040BA000160EF0021
:100740000000060054650000726D0000696E000034
:10075000616C0000204300006C65000061720000C5
:1007600000000000851F780005B024009E010900EC
:10077000000000008502E90003003A000028EF00B5
:1007800000002000060037003202AE00F7FF3700FD
:100790003202F8000008F900B01180003222A900EE
:1007A000CF027800000006004200F8003600F80092
:1007B0003200F800801F7800200020000C000900A3
:1007C000B01F7800B20302000000000006E8B70086
:1007D0000408A80087C0A900A00120000C0009009F
:1007E0004F1078004F0078003200F9003600F90011
:1007F0004200F90000400600851F78003228A90059
:100800003468EF003568EF00C882BF00F00FB20017
:100810000002780000F02000840270004516880075
:100820003228AF00690037003448E20007003A0080
:10083000CA82BF00F00FB2000002780000F02E0064
:1008400004007000CAA2B7001D003700A441800058
:100850006124E10007003A00CA82BF00F00FB20035
:100860000002780000F02D0004007000CAA2B7005A
:1008700013003700A44180006224E10007003A0021
:10088000CA82BF00F00FB2000002780000F02B0017
:1008900004007000CAA2B70009003700A44180001C
:1008A0006324E10006003A00CA82BF00F00FB200E4
:1008B0000002780000F0270004007000CAA2B70010
:1008C0003208AE000C00370000F02000CA02B6006B
:1008D0008002780004F020000520E10005003A00C5
:1008E0003208A90033C8BF0035E8B7003368EF000D
:1008F0003228A8003400370000F02000CA02B600F9
:100900008002780004F020000520E1002900320078
:1009100000802000CA02B600800278000500E000D6
:1009200002003A003668EF00150037000040200052
:10093000CA02B600800278000500E00003003A0019
:1009400010C0B30036E8B7000D0037005516800020
:100950000520B2000500E00003003A0020C0B3000B
:1009600036E8B70006003700551680000510B200C3
:100970000500E00002003A0030C0B30036E8B700DE
:10098000B44180000960EF003300200084825100F0
:10099000C22ADD00A44180000960EF00048042000B
:1009A000000202000000000033E8B7003208A8008F
:1009B000050037003468EC00A44180006424E100A5
:1009C00001003A003468EF0095FF370035C8BF00DA
:1009D000CF027800000006004200F8003600F80060
:1009E0003200F800801F7800200020000C00090071
:1009F000B01F7800FC0302000000000005E8B7000B
:100A00000428A8008400A900A00120000C0009000F
:100A10004F1078004F0078003200F9003600F900DE
:100A20004200F900004006000000E0004220AF0054
:100A3000040037007B3E0900000000000000E900D0
:100A4000FCFF3A00000006003008AF00020037004B
:100A5000CD82A90001003700CD82A8003028AF0068
:100A600002003700CDA2A90001003700CDA2A800E6
:100A70003048AF0002003700CDC2A90001003700A6
:100A8000CDC2A8003068AF0002003700CDE2A90057
:100A900001003700CDE2A80000000000C4E2A80079
:100AA000C0E2A9001E00090000000000C4E2A90085
:100AB000C0E2A90000000600851F78003068EF0042
:100AC0000000EB00CB82AF000000E8003068B70008
:100AD0000000EB00CBA2AF000000E8000160EF00D7
:100AE0004100DD003068B7000000EB00CBC2AF0072
:100AF0000000E8000160EF004200DD003068B70050
:100B00000000EB00CBE2AF000000E8000160EF0066
:100B10004300DD003068B70030C8BF0000E0B70018
:100B2000CF02780000000600851F7800C982A80067
:100B3000C9A2A800C9C2A800C9E2A800CD22A80085
:100B400000000000C4E2A800C0E2A900000000000C
:100B50005C050200000000002FE8B700C4E2A90015
:100B6000C0E2A90000000000C4E2A800C0E2A900A1
:100B70000E000900000000005C05020000000000FB
:100B80002EE8B700C4E2A900C0E2A900C982A9000A
:100B9000C9A2A900C9C2A900C9E2A9007541800083
:100BA000C82ADE00C42ADD002EC8BF000160EF00A5
:100BB00000807200CF02780000000600851F7800D8
:100BC000C0E2A900C902A900C922A900CD02A9005A
:100BD0009405020000000000804278000570A70024
:100BE000FBFF37002A48E20002003A00CD02A900CC
:100BF00001003700CD02A80000000000CD22A900AE
:100C000000000000C4E2A900C0E2A9005541800034
:100C1000C82ADE00C42ADE003008F800E5FF9F0085
:100C20003008F90024050200000000002BC8BF00B6
:100C30000160EF00EF0260003008F800E5FF9F0060
:100C40003008F9002405020000000000CF027800FF
:100C500000000600851F780084C22000B440880090
:100C600014602000C4408800C4E2A900C0E2A900CA
:100C7000CD02A900CD22A900C982A900C9A2A9005C
:100C8000C9C2A900C9E2A900C0E2A900C902A9001D
:100C9000C922A900F0002000140502000000000095
:100CA00010C0B30014E8B700A44080006324E10042
:100CB00009003E0030C0B30030E8B7002405020050
:100CC0000000000050002000140502000000000099
:100CD0001468EC00F4FF370020C0B30030E8B70020
:100CE000240502000000000050002000140502004E
:100CF000000000001468EF00A44080006324E100BD
:100D00000D003E00A44080000960EF0063812000D8
:100D100003004200904278002A68EF002A08F80099
:100D2000F5FF9F002A08F900DE0502000000000020
:100D30001468EC00F0FF37000268EF000368EF0072
:100D4000CF02780000000600851F78001441800063
:100D50004822DE006224E10003003A0000C4B30030
:100D600024E8B7000F003700144180004822DE005D
:100D70006324E10003003A0040C1B30024E8B70057
:100D800008003700144180004822DE006424E1009E
:100D900003003A0040C5B30024E8B7000100370063
:100DA0002468EF00144180000960EF0061005200E8
:100DB0002468B40024C8BF000160EF0080427800BE
:100DC0000508B3002A68EF002A08F800F5FF9F0025
:100DD0002A08F900DE05020000000000144180002E
:100DE0006140520002E8B700144180004822DE0052
:100DF0006140520003E8B700CF027800000006000F
:100E0000851F78001CC8BF000000FB007080B20086
:100E100009003200B080B2000E0032001080B20033
:100E2000180032007080B200200032002080B20032
:100E3000330032003800370010C0B30022E8B7009A
:100E400010C0B30023E8B700A406020000000000B1
:100E50003C0037002A68EF0010C0B3002BE8B70051
:100E6000DE05020000000000FE3C0900000000005A
:100E7000FF3F0900000000000268EF000368EF0078
:100E800030003700144080004822DE00E1024200BA
:100E900010C0B30022E8B7000540780023E8B7008F
:100EA000A4060200000000002600370002C8BF00B0
:100EB0000268EC007404E1000700310010C0B300C8
:100EC0002AE8B70000C2B3002BE8B700DE05020035
:100ED00000000000F5FF3700144080004822DE00CB
:100EE000E202420010C0B30022E8B70005407800DB
:100EF00023E8B700A406020000000000110037003C
:100F00002A68EF0000C1B3002BE8B700DE0502003D
:100F1000000000000B003700144080007424E10042
:100F20000700310010C0B3002AE8B7001CC8BF009A
:100F30002BE8B700DE050200000000000268EC00AC
:100F400000003700CF02780000000600C0C0B300E8
:100F50001CE8B7000007020000000000C440800049
:100F60006120E10041003A00E0C3B3001CE8B70093
:100F7000000702000000000000C2B3001CE8B70038
:100F800000070200000000000100200001007800BE
:100F90000160EF004E020200000000008100E80046
:100FA000811F78001CE8B700000702000000000065
:100FB000CF007800D00020000008E600F3FF3700E3
:100FC00001002000010078000160EF006A020200C9
:100FD000000000008100E800811F78001CE8B700D5
:100FE0000007020000000000CF0078005000200041
:100FF0000008E600F3FF3700010020000100780040
:101000000160EF007E020200000000008100E800A5
:10101000811F78001CE8B7000007020000000000F4
:10102000CF007800A00020000008E600F3FF3700A2
:1010300001002000010078000160EF00960202002C
:10104000000000008100E800811F78001CE8B70064
:101050000007020000000000CF00780050002000D0
:101060000008E600F3FF3700CB003700C4408000E3
:101070006220E10041003A000100200001007800F8
:101080000160EF004E020200000000008100E80055
:10109000811F78001CE8B700000702000000000074
:1010A000CF007800D00020000008E600F3FF3700F2
:1010B000E0C3B3001CE8B700000702000000000016
:1010C00000C2B3001CE8B7000007020000000000E7
:1010D00001002000010078000160EF006A020200B8
:1010E000000000008100E800811F78001CE8B700C4
:1010F0000007020000000000CF0078005000200030
:101100000008E600F3FF370001002000010078002E
:101110000160EF007E020200000000008100E80094
:10112000811F78001CE8B7000007020000000000E3
:10113000CF007800A00020000008E600F3FF370091
:1011400001002000010078000160EF00960202001B
:10115000000000008100E800811F78001CE8B70053
:101160000007020000000000CF00780050002000BF
:101170000008E600F3FF370087003700C440800016
:101180006320E10041003A000100200001007800E6
:101190000160EF004E020200000000008100E80044
:1011A000811F78001CE8B700000702000000000063
:1011B000CF007800D00020000008E600F3FF3700E1
:1011C00001002000010078000160EF006A020200C7
:1011D000000000008100E800811F78001CE8B700D3
:1011E0000007020000000000CF007800500020003F
:1011F0000008E600F3FF3700E0C3B3001CE8B700C7
:10120000000702000000000000C2B3001CE8B700A5
:10121000000702000000000001002000010078002B
:101220000160EF007E020200000000008100E80083
:10123000811F78001CE8B7000007020000000000D2
:10124000CF007800A00020000008E600F3FF370080
:1012500001002000010078000160EF00960202000A
:10126000000000008100E800811F78001CE8B70042
:101270000007020000000000CF00780050002000AE
:101280000008E600F3FF370043003700C440800049
:101290006420E10040003A000100200001007800D5
:1012A0000160EF004E020200000000008100E80033
:1012B000811F78001CE8B700000702000000000052
:1012C000CF007800D00020000008E600F3FF3700D0
:1012D00001002000010078000160EF006A020200B6
:1012E000000000008100E800811F78001CE8B700C2
:1012F0000007020000000000CF007800500020002E
:101300000008E600F3FF370001002000010078002C
:101310000160EF007E020200000000008100E80092
:10132000811F78001CE8B7000007020000000000E1
:10133000CF007800A00020000008E600F3FF37008F
:10134000E0C3B3001CE8B700000702000000000083
:1013500000C2B3001CE8B700000702000000000054
:1013600001002000010078000160EF0096020200F9
:10137000000000008100E800811F78001CE8B70031
:101380000007020000000000CF007800500020009D
:101390000008E600F3FF370000000600851F780014
:1013A000C882BF00F00FB2000002780000F02000F9
:1013B000840270004516880070C0A80070A0A800C4
:1013C0007000A8006FE0A800CA82BF00F00FB20052
:1013D000CAA2B700CF027800000006002A06020069
:1013E0000000000001002000010078000160EF0013
:1013F00036020200000000008100E800811F780032
:101400001CE8B7000007020000000000CF007800D1
:10141000A00020000008E600F3FF3700401F200076
:101420001405020000000000C0C0B3001CE8B700B3
:1014300000070200000000000E08F8001808F9007C
:10144000A607020000000000CE0902000000000014
:101450008200A9008400A9009400A80097C0A800F9
:1014600081E0A9004220EF0081E0A8000000060012
:101470009400A9006E20EF007020EF00000006002D
:101480001848E200060032002A68EF00F0C0B300FE
:101490002BE8B700DE050200000000000500370061
:1014A0002A68EF00C0C0B3002BE8B700DE050200D9
:1014B0000000000000000600861F7800871F7800EB
:1014C000881F7800891F78000002EB008002EB0083
:1014D0000003EB008003EB000304690011003200FD
:1014E000080220004200A9000080D2008180D200C2
:1014F0000482D2008582D2000328E10001003A0074
:1015000002A0E100030039000202520083825A0067
:101510004200A8000683D2008783D2000804E900B5
:10152000F0FF3A008700780006007800CF047800CA
:101530004F047800CF0378004F03780000000600C6
:10154000851F7800C500200007000900B51F78003E
:1015500001F0A600070037000000EA000100320099
:1015600002003A008100EA00010037008180EA00B1
:101570000480A0008002EB00000378008103780063
:101580000406780004F0A1000404E00001003A0021
:1015900022003700EB425200200039000542520081
:1015A0000CF0A6000F0037000480A6000B003700E7
:1015B000D0022000811F7800841F78001CE8B7004B
:1015C00000070200000000004F027800CF00780002
:1015D0000480A1008502E900100033000003200010
:1015E0000100370000022000801F7800811F780072
:1015F000841F78001CE8B70000070200000000000C
:101600004F027800CF0078004F0078008502E90093
:10161000F5FF3B000480A7000442E900E800200039
:10162000090020001000FA000C377C000884E90053
:10163000FDFF3B0084027800A40020000580A70085
:101640000402E80005E0A0000CF0A70005F0A000EF
:101650000504E000010032008542E900040F780033
:1016600015079800060078008700780002A02C007B
:10167000A3B92300087122000DF0A1004300A900C6
:101680005C0A0200000000000DF0A2000DF0A700AF
:1016900007003700400798005107980000017800C4
:1016A000810178002E009000BE009000F3FF37000B
:1016B00042079800530798002407980035079800C0
:1016C0001E0278009E029000060320000000E00049
:1016D00011003A0005E0A600110037000402E900FD
:1016E000040F78000400E0000D0032000524E10042
:1016F000020032004200AF001C00370005F0A600D7
:10170000030037000580A6001200370007003700ED
:10171000060220000F00370005E0A1001507980021
:101720009E0290000580A6000A0037000580A100F7
:101730001507980000057800D0022000841F78006B
:101740001CE8B70000070200000000004F0278000C
:101750000A00780000404300841F78001CE8B700AE
:1017600000070200000000004F0278004E009000C9
:10177000DE009000A20020008001EB006100E1008B
:1017800001003200BDFF37000080FA00A5012000F3
:1017900007000900CF127800CF0278000000060091
:1017A000C0C0B3001CE8B700000702000000000042
:1017B00001002000010078000160EF00AA02020091
:1017C000000000008100E800811F78001CE8B700DD
:1017D0000007020000000000CF007800A0002000F9
:1017E0000008E600F3FF37000808E20002003A00B4
:1017F0000A08E200050032000888BF00514080005E
:1018000004002000A00A0200000000000000060002
:10181000C0C0B3001CE8B7000007020000000000D1
:10182000C44080006120E1004B003A00E0C3B300F7
:101830001CE8B700000702000000000000C2B3006F
:101840001CE8B700000702000000000001002000B3
:10185000010078000160EF00C202020000000000F9
:101860008100E800811F78001CE8B7000007020033
:1018700000000000CF007800B00020000008E60063
:10188000F3FF370001002000010078000160EF0045
:10189000DC020200000000008100E800811F7800E7
:1018A0001CE8B7000007020000000000CF0078002D
:1018B000900020000008E600F3FF37000100200040
:1018C000010078000160EF00F40202000000000057
:1018D0008100E800811F78001CE8B70000070200C3
:1018E00000000000CF007800B00020000008E600F3
:1018F000F3FF370001002000010078000160EF00D5
:101900000E030200000000008100E800811F780043
:101910001CE8B7000007020000000000CF007800BC
:10192000B00020000008E600F3FF370040C1B3001C
:1019300022E8B70040C0B30023E8B700A4060200C5
:1019400000000000E0C3B3001CE8B700000702007D
:1019500000000000A9013700C44080006220E100BF
:101960004B003A0001002000010078000160EF0008
:10197000C2020200000000008100E800811F780020
:101980001CE8B7000007020000000000CF0078004C
:10199000B00020000008E600F3FF3700E0C3B3000A
:1019A0001CE8B700000702000000000000C2B300FE
:1019B0001CE8B70000070200000000000100200042
:1019C000010078000160EF00DC020200000000006E
:1019D0008100E800811F78001CE8B70000070200C2
:1019E00000000000CF007800900020000008E60012
:1019F000F3FF370001002000010078000160EF00D4
:101A0000F4020200000000008100E800811F78005D
:101A10001CE8B7000007020000000000CF007800BB
:101A2000B00020000008E600F3FF370001002000AE
:101A3000010078000160EF000E03020000000000CA
:101A40008100E800811F78001CE8B7000007020051
:101A500000000000CF007800B00020000008E60081
:101A6000F3FF370040C1B30022E8B70040C0B30025
:101A700023E8B700A406020000000000E0C3B300A2
:101A80001CE8B70000070200000000005B013700FF
:101A9000C44080006320E1004B003A0001002000B8
:101AA000010078000160EF00C202020000000000A7
:101AB0008100E800811F78001CE8B70000070200E1
:101AC00000000000CF007800B00020000008E60011
:101AD000F3FF370001002000010078000160EF00F3
:101AE000DC020200000000008100E800811F780095
:101AF0001CE8B7000007020000000000CF007800DB
:101B0000900020000008E600F3FF3700E0C3B300B8
:101B10001CE8B700000702000000000000C2B3008C
:101B20001CE8B700000702000000000001002000D0
:101B3000010078000160EF00F402020000000000E4
:101B40008100E800811F78001CE8B7000007020050
:101B500000000000CF007800B00020000008E60080
:101B6000F3FF370001002000010078000160EF0062
:101B70000E030200000000008100E800811F7800D1
:101B80001CE8B7000007020000000000CF0078004A
:101B9000B00020000008E600F3FF370040C1B300AA
:101BA00022E8B70040C0B30023E8B700A406020053
:101BB00000000000E0C3B3001CE8B700000702000B
:101BC000000000000D013700C44080006420E100E7
:101BD0004B003A0001002000010078000160EF0096
:101BE000C2020200000000008100E800811F7800AE
:101BF0001CE8B7000007020000000000CF007800DA
:101C0000B00020000008E600F3FF370001002000CC
:101C1000010078000160EF00DC020200000000001B
:101C20008100E800811F78001CE8B700000702006F
:101C300000000000CF007800900020000008E600BF
:101C4000F3FF370001002000010078000160EF0081
:101C5000F4020200000000008100E800811F78000B
:101C60001CE8B7000007020000000000CF00780069
:101C7000B00020000008E600F3FF3700E0C3B30027
:101C80001CE8B700000702000000000000C2B3001B
:101C90001CE8B7000007020000000000010020005F
:101CA000010078000160EF000E0302000000000058
:101CB0008100E800811F78001CE8B70000070200DF
:101CC00000000000CF007800B00020000008E6000F
:101CD000F3FF370040C1B30022E8B70040C0B300B3
:101CE00023E8B700A406020000000000E0C3B30030
:101CF0001CE8B7000007020000000000BF0037002A
:101D0000C44080006520E1003D003A00E0C3B3001C
:101D10001CE8B700000702000000000000C2B3008A
:101D20001CE8B700000702000000000001002000CE
:101D3000010078000160EF002803020000000000AD
:101D40008100E800811F78001CE8B700000702004E
:101D500000000000CF007800B00020000008E6007E
:101D6000F3FF370001002000010078000160EF0060
:101D700042030200000000008100E800811F78009B
:101D80001CE8B7000007020000000000CF00780048
:101D9000D00020000008E600F3FF3700010020001B
:101DA000010078000160EF005E0302000000000007
:101DB0008100E800811F78001CE8B70000070200DE
:101DC00000000000CF007800E00020000008E600DE
:101DD000F3FF370040C1B30022E8B70040C0B300B2
:101DE00023E8B700A406020000000000C0C3B3004F
:101DF0001CE8B70000070200000000007F00370069
:101E0000C44080006620E1003D003A00010020004F
:101E1000010078000160EF002803020000000000CC
:101E20008100E800811F78001CE8B700000702006D
:101E300000000000CF007800B00020000008E6009D
:101E4000F3FF3700E0C3B3001CE8B700000702004F
:101E50000000000000C2B3001CE8B7000007020049
:101E60000000000001002000010078000160EF0088
:101E700042030200000000008100E800811F78009A
:101E80001CE8B7000007020000000000CF00780047
:101E9000D00020000008E600F3FF3700010020001A
:101EA000010078000160EF005E0302000000000006
:101EB0008100E800811F78001CE8B70000070200DD
:101EC00000000000CF007800E00020000008E600DD
:101ED000F3FF370040C1B30022E8B70040C0B300B1
:101EE00023E8B700A406020000000000C0C3B3004E
:101EF0001CE8B70000070200000000003F003700A8
:101F0000C44080006720E1003C003A00010020004E
:101F1000010078000160EF002803020000000000CB
:101F20008100E800811F78001CE8B700000702006C
:101F300000000000CF007800B00020000008E6009C
:101F4000F3FF370001002000010078000160EF007E
:101F500042030200000000008100E800811F7800B9
:101F60001CE8B7000007020000000000CF00780066
:101F7000D00020000008E600F3FF3700E0C3B30004
:101F80001CE8B700000702000000000000C2B30018
:101F90001CE8B7000007020000000000010020005C
:101FA000010078000160EF005E0302000000000005
:101FB0008100E800811F78001CE8B70000070200DC
:101FC00000000000CF007800E00020000008E600DC
:101FD000F3FF370040C1B30022E8B70040C0B300B0
:101FE00023E8B700A406020000000000C0C3B3004D
:101FF0001CE8B70000070200000000000000060017
:102000001488BF001080B200050032003080B2009A
:102010000B0032001080B2001000320016003700B2
:102020000E08F8001808F900A607020000000000DA
:102030001868EF00400A0200000000000E003700A0
:10204000D00B02000000000010C0B30018E8B70079
:10205000400A0200000000000700370014002000C2
:10206000744088000E08F8001808F900080C0200F7
:10207000000000000000370000000600851F780007
:10208000C500200003000900B51F78000202B80057
:1020900003F0A600020037000383B90001003700F7
:1020A0000303B8004200A9008502430060844B008E
:1020B00001F0A60002003700028BB90001003700D2
:1020C000020BB80085024B0008844B000980B00069
:1020D000038BB90008044B0087834C00870178000C
:1020E00008017800850078000400780025012000B0
:1020F00003000900CF127800CF027800000006002C
:10210000851F7800C500200003000900B51F780076
:10211000090020004300AF0019002000891F78004B
:102120008384680001F0A600030037008180EA0084
:102130000000EA00E080480003F0A600030037003A
:102140008381EA000201EA00E0814900030269009C
:10215000150032000002EB008002EB000003EB00F0
:102160008003EB00080220004200A9000080D2009A
:102170008180D2000482D2008582D2000328E1004F
:1021800001003A0002A0E1000300390002025200FF
:1021900083825A004200A8000683D2008783D200BF
:1021A0000804E900F0FF3A0009F0A6000700370034
:1021B0000600EA000100320002003A008700EA004F
:1021C000050037008780EA000300370087007800A9
:1021D0000600780000003700CF0478000900E00016
:1021E000010032000400BE002501200003000900A8
:1021F000CF127800CF02780000000600851F78001B
:10220000C500200007000900B51F780001F0A600F6
:10221000070037000000EA000100320002003A0027
:102220008100EA00010037008180EA000480A000FC
:102230008002EB0000037800810378000406780038
:1022400004F0A1000404E00001003A001A00370085
:10225000EB42520018003900054252000CF0A60073
:102260000B0037000480A60007003700D0022000D2
:102270003302AE00FEFF370034A2B7000480A10095
:102280008502E9000C003300000320000100370044
:1022900000022000801F78003302AE00FEFF3700EE
:1022A00034A2B7004F0078008502E900F9FF3B0037
:1022B0000480A7000442E900E80020000900200093
:1022C0001000FA000C377C000884E900FDFF3B0099
:1022D00084027800A40020000580A7000402E80022
:1022E00005E0A0000CF0A70005F0A0000504E00048
:1022F000010032008542E900040F780015079800BC
:10230000060078008700780002A02C00A3B9230003
:10231000087122000DF0A1004300A9005C0A020030
:10232000000000000DF0A2000DF0A700070037002C
:10233000400798005107980000017800810178005B
:102340002E009000BE009000F3FF37004207980077
:102350005307980024079800350798001E0278005C
:102360009E029000060320000000E00011003A00E9
:1023700005E0A600110037000402E900040F780010
:102380000400E0000D0032000524E10002003200EC
:102390004200AF001800370005F0A6000300370028
:1023A0000580A60010003700070037000602200055
:1023B0000D00370005E0A100150798009E0290006F
:1023C0000580A600080037000580A10015079800C9
:1023D00000057800D00220003302AE00FEFF370077
:1023E00034A2B7000A007800004043003302AE0078
:1023F000FEFF370034A2B7004E009000DE009000D0
:10240000A20020008001EB006100E1000100320029
:10241000C1FF37000080FA00A50120000700090075
:10242000CF127800CF02780000000600851F7800E8
:10243000C500200003000900B51F780000F0A600C9
:102440000C0037000000EA000480A00004F0A600A1
:1024500008003700801F7800D00220003302AE0051
:10246000FEFF370034A2B7004F0078000480A100BF
:102470000860ED008002EB0080037800840478009F
:1024800004F0A1000404E00006003A0009F0A700EF
:10249000020037000500200014003700050020006E
:1024A000120037000980A600E64252000980A7000A
:1024B000E74252000C0039000003200009F0A6009A
:1024C00000022000801F78003302AE00FEFF3700BC
:1024D00034A2B7004F0078008502E900F9FF3B0005
:1024E00055002000010037008402780064002000BD
:1024F0000580A7000402E80005E0A00009F0A7009D
:1025000005F0A00008712200110009008883D8009E
:10251000CC1202000000000081037800883E2000F9
:10252000110009008883D800CC12020000000000CE
:102530008103780048062000110009008883D80034
:10254000CC1202000000000081037800A8002000E7
:10255000110009008883D800CC120200000000009E
:102560000980A60005003700D00220003302AE002B
:10257000FEFF370034A2B7000980A100000320004D
:1025800000C04000500188003302AE00FEFF37005B
:1025900034A2B70020003700060320000000E0004E
:1025A0000E003A0005E0A600160037000402E9001C
:1025B0000524E100020032004200AF0000000600E6
:1025C0000000E00005003A0005E0A6000D0037001D
:1025D00005F0A600060220000A00370005E0A10071
:1025E0000980A6000700370000057800D00220000F
:1025F0003302AE00FEFF370034A2B7000980A1000D
:102600000A007800004043003302AE00FEFF3700AE
:1026100034A2B700000006002501200003000900D5
:10262000CF127800CF02780000000600C0C0B300CF
:102630001CE8B700000702000000000000000600D0
:10264000CE090200000000008400A9009400A80048
:1026500000000600851F7800380A02000000000014
:102660000408AE00280037003440800014C2B200D5
:1026700012003A00161302000000000001002000C2
:10268000010078000160EF007A0302000000000002
:102690008100E800811F78001CE8B70000070200F5
:1026A00000000000CF007800D00020000008E60005
:1026B000F3FF37000408A800120037003440800000
:1026C00034C2B20002003A000408A8000D0037002E
:1026D00006C8BF0002E0B7000360EF001104E0008D
:1026E00008003200811F7800014090001CE8B7000C
:1026F0000007020000000000CF0078008100E80021
:10270000F6FF3700D6FF370020130200000000005C
:10271000CF02780000000600380A02000000000026
:1027200016130200000000000100200001007800E4
:102730000160EF0096030200000000008100E80045
:10274000811F78001CE8B7000007020000000000AD
:10275000CF007800D00020000008E600F3FF37002B
:102760002013020000000000000006000FF8200007
:10277000F0FF200020A0B7000000000081E0A800CA
:102780004427EF004427EF000E00FC00101020004B
:102790003174200082072000A309200082487800BD
:1027A0008348780043E7B7004800DE00217420002A
:1027B0006204200073052000824878008348780076
:1027C000804878000028EF00040028008411880069
:1027D00004402000941188003062A80024022000E8
:1027E000C41188000408A9000428A9000828EF00E3
:1027F0000A28EF0014002000644088001400200024
:10280000744088001028EF00E024EF00E224EF007D
:10281000EE09020000000000010020000100780025
:102820000160EF001C020200000000008100E800CF
:102830003302AE00FEFF370034A2B700B000200024
:102840000008E600F5FF37000408A9000428A900E5
:1028500010C0B30012E8B7001308A9000428AE00A6
:10286000F6003700380A0200000000000C88BF00A4
:102870001080B200090032003080B2002F00320018
:102880001080B2009D0032007080B200DA00320089
:102890001080B200E4003200E400370024408000E1
:1028A0004822DE0014C4B20009003A0074408000DF
:1028B0006120E100010032000E28ED000E08F80052
:1028C0001808F900A6070200000000001A003700EF
:1028D000244080004822DE0024C4B20009003A00EF
:1028E000744080006420E100010032000E28EC00FA
:1028F0000E08F8001808F900A60702000000000002
:102900000D003700244080004822DE0034C2B200AF
:1029100009003A000C88BF000E08B4000CA8B700EC
:102920000C08F8001408F900001002000000000074
:102930001400200074408800BC0037002440800050
:102940004822DE0044C4B2000A003A00140020000D
:10295000644088000C08F8001408F9000010020018
:10296000000000000828EF000A28EF00AF00370041
:102970005F003700244080004822DE00030320006F
:10298000041CE1002B003C00244080004822DE00B3
:1029900093032000041CE100260035000888BF00D6
:1029A00051408000A2002000030020003E100200E1
:1029B00000000000800278000103780005C8BF0015
:1029C0000000FB008000EB0000F0A7008080EB001F
:1029D0008502400006834800040320000480520062
:1029E00008A8B70060005B000AA8B7005440800048
:1029F0006320E1000E00350004003C0044408000EC
:102A000003D420000418E100090031004300A900AC
:102A10000888BF0051408000A20020000300200071
:102A2000801002000000000008A8B7005140880094
:102A30002F003700244080004822DE00A4C2B200EC
:102A40000A003A004300A9000888BF0051408000F6
:102A5000A2002000030020008010020000000000FF
:102A600008A8B700514088002100370024408000AA
:102A70004822DE0034C2B2001D003A0054408000FB
:102A80006020E1001A00350003003C004440800053
:102A90006020E100160036003302AE00FEFF370072
:102AA00064042000A41188000888BF005140800001
:102AB00004002000FE100200000000003302AE00FF
:102AC000FEFF3700A4002000A4118800140020009D
:102AD000644088000C08F8001408F9000010020097
:102AE000000000000828EF000A28EF004F00370020
:102AF000D00B0200000000004C0037002440800092
:102B00004822DE0014C4B20009003A00744080007C
:102B10006120E100010032000E28ED000E08F800EF
:102B20001808F900080C020000000000310037000E
:102B3000244080004822DE0024C4B20009003A008C
:102B4000744080006720E100010032000E28EC0094
:102B50000E08F8001808F900080C02000000000038
:102B600024003700244080004822DE0034C2B20036
:102B700013003A003302AE00FEFF37003405200098
:102B8000A41188000E88BF00040020001612020065
:102B9000000000002A1302000000000014002000C2
:102BA000644088000C08F8001408F90000100200C6
:102BB0000000000014002000744088000D00370061
:102BC000244080004822DE0044C4B20009003A00DC
:102BD0001400200064408800140020007440880025
:102BE0000C08F8001408F9000010020000000000B2
:102BF0000E0037000D0037008C13020000000000AB
:102C000014002000644088001400200074408800F4
:102C10000C08F8001408F900001002000000000081
:102C200002003700010037000000370020130200C7
:102C3000000000000428A900030037000408AE00CB
:102C4000010037000408A90004FF37000040FE001F
:0200000401F009
:100000000F0000FF000000FF030000FFE10000FF01
:100010003B0000FF5F0000FF9C0000FF830000FF2B
:00000001FF
;PIC24FV16KM202
;CRC=596B  CREATED="11-Apr-22 16:43"
